{
    "contractName": "Assessment",
    "abi": [
        {
            "inputs": [
                {
                    "internalType": "uint256",
                    "name": "initBalance",
                    "type": "uint256"
                }
            ],
            "stateMutability": "payable",
            "type": "constructor"
        },
        {
            "inputs": [
                {
                    "internalType": "uint256",
                    "name": "balance",
                    "type": "uint256"
                },
                {
                    "internalType": "uint256",
                    "name": "withdrawAmount",
                    "type": "uint256"
                }
            ],
            "name": "InsufficientBalance",
            "type": "error"
        },
        {
            "anonymous": false,
            "inputs": [
                {
                    "indexed": false,
                    "internalType": "uint256",
                    "name": "amount",
                    "type": "uint256"
                }
            ],
            "name": "Deposit",
            "type": "event"
        },
        {
            "anonymous": false,
            "inputs": [
                {
                    "indexed": false,
                    "internalType": "uint256",
                    "name": "amount",
                    "type": "uint256"
                }
            ],
            "name": "Withdraw",
            "type": "event"
        },
        {
            "inputs": [],
            "name": "_tokenAbbrv",
            "outputs": [
                {
                    "internalType": "string",
                    "name": "",
                    "type": "string"
                }
            ],
            "stateMutability": "view",
            "type": "function"
        },
        {
            "inputs": [],
            "name": "_tokenName",
            "outputs": [
                {
                    "internalType": "string",
                    "name": "",
                    "type": "string"
                }
            ],
            "stateMutability": "view",
            "type": "function"
        },
        {
            "inputs": [],
            "name": "_totalSupply",
            "outputs": [
                {
                    "internalType": "uint256",
                    "name": "",
                    "type": "uint256"
                }
            ],
            "stateMutability": "view",
            "type": "function"
        },
        {
            "inputs": [],
            "name": "balance",
            "outputs": [
                {
                    "internalType": "uint256",
                    "name": "",
                    "type": "uint256"
                }
            ],
            "stateMutability": "view",
            "type": "function"
        },
        {
            "inputs": [
                {
                    "internalType": "uint256",
                    "name": "_amount",
                    "type": "uint256"
                }
            ],
            "name": "deposit",
            "outputs": [],
            "stateMutability": "payable",
            "type": "function"
        },
        {
            "inputs": [],
            "name": "getBalance",
            "outputs": [
                {
                    "internalType": "uint256",
                    "name": "",
                    "type": "uint256"
                }
            ],
            "stateMutability": "view",
            "type": "function"
        },
        {
            "inputs": [],
            "name": "getTokenAbbrv",
            "outputs": [
                {
                    "internalType": "string",
                    "name": "",
                    "type": "string"
                }
            ],
            "stateMutability": "view",
            "type": "function"
        },
        {
            "inputs": [],
            "name": "getTokenName",
            "outputs": [
                {
                    "internalType": "string",
                    "name": "",
                    "type": "string"
                }
            ],
            "stateMutability": "view",
            "type": "function"
        },
        {
            "inputs": [],
            "name": "owner",
            "outputs": [
                {
                    "internalType": "address payable",
                    "name": "",
                    "type": "address"
                }
            ],
            "stateMutability": "view",
            "type": "function"
        },
        {
            "inputs": [
                {
                    "internalType": "uint256",
                    "name": "_withdrawAmount",
                    "type": "uint256"
                }
            ],
            "name": "withdraw",
            "outputs": [],
            "stateMutability": "nonpayable",
            "type": "function"
        }
    ],
    "bytecode": "60c0604052600c60809081526b2724a5a424a61025aaa6a0a960a11b60a05260029061002b908261012f565b506040805180820190915260028152614e4b60f01b6020820152600390610052908261012f565b5060156004556040516107d83803806107d8833981016040819052610076916101ee565b600080546001600160a01b03191633179055600155610207565b634e487b7160e01b600052604160045260246000fd5b600181811c908216806100ba57607f821691505b6020821081036100da57634e487b7160e01b600052602260045260246000fd5b50919050565b601f82111561012a57600081815260208120601f850160051c810160208610156101075750805b601f850160051c820191505b8181101561012657828155600101610113565b5050505b505050565b81516001600160401b0381111561014857610148610090565b61015c8161015684546100a6565b846100e0565b602080601f83116001811461019157600084156101795750858301515b600019600386901b1c1916600185901b178555610126565b600085815260208120601f198616915b828110156101c0578886015182559484019460019091019084016101a1565b50858210156101de5787850151600019600388901b60f8161c191681555b5050505050600190811b01905550565b60006020828403121561020057600080fd5b5051919050565b6105c2806102166000396000f3fe6080604052600436106100915760003560e01c80639f0c8125116100595780639f0c81251461014c578063a48c933f14610161578063b5964ace14610176578063b69ef8a81461018b578063b6b55f25146101a157600080fd5b806312065fe0146100965780632e1a7d4d146100ba5780633eaaf86b146100dc578063862b092b146100f25780638da5cb5b14610114575b600080fd5b3480156100a257600080fd5b506001545b6040519081526020015b60405180910390f35b3480156100c657600080fd5b506100da6100d536600461044e565b6101b4565b005b3480156100e857600080fd5b506100a760045481565b3480156100fe57600080fd5b50610107610283565b6040516100b19190610467565b34801561012057600080fd5b50600054610134906001600160a01b031681565b6040516001600160a01b0390911681526020016100b1565b34801561015857600080fd5b50610107610315565b34801561016d57600080fd5b506101076103a3565b34801561018257600080fd5b506101076103b2565b34801561019757600080fd5b506100a760015481565b6100da6101af36600461044e565b6103bf565b6000546001600160a01b031633146101e75760405162461bcd60e51b81526004016101de906104b5565b60405180910390fd5b600154818110156102195760015460405163cf47918160e01b81526004810191909152602481018390526044016101de565b816001600082825461022b9190610510565b9091555061023b90508282610510565b6001541461024b5761024b610529565b6040518281527f5b6b431d4476a211bb7d41c20d1aab9ae2321deee0d20be3d9fc9b1093fa6e3d906020015b60405180910390a15050565b6060600280546102929061053f565b80601f01602080910402602001604051908101604052809291908181526020018280546102be9061053f565b801561030b5780601f106102e05761010080835404028352916020019161030b565b820191906000526020600020905b8154815290600101906020018083116102ee57829003601f168201915b5050505050905090565b600280546103229061053f565b80601f016020809104026020016040519081016040528092919081815260200182805461034e9061053f565b801561039b5780601f106103705761010080835404028352916020019161039b565b820191906000526020600020905b81548152906001019060200180831161037e57829003601f168201915b505050505081565b6060600380546102929061053f565b600380546103229061053f565b6001546000546001600160a01b031633146103ec5760405162461bcd60e51b81526004016101de906104b5565b81600160008282546103fe9190610579565b9091555061040e90508282610579565b6001541461041e5761041e610529565b6040518281527f4d6ce1e535dbade1c23defba91e23b8f791ce5edc0cc320257a2b364e4e3842690602001610277565b60006020828403121561046057600080fd5b5035919050565b600060208083528351808285015260005b8181101561049457858101830151858201604001528201610478565b506000604082860101526040601f19601f8301168501019250505092915050565b60208082526025908201527f596f7520617265206e6f7420746865206f776e6572206f66207468697320616360408201526418dbdd5b9d60da1b606082015260800190565b634e487b7160e01b600052601160045260246000fd5b81810381811115610523576105236104fa565b92915050565b634e487b7160e01b600052600160045260246000fd5b600181811c9082168061055357607f821691505b60208210810361057357634e487b7160e01b600052602260045260246000fd5b50919050565b80820180821115610523576105236104fa56fea264697066735822122000f25c77d5a1afdb54e14de90e79c27a1a431385b8f2d8dc34a182d578b98d7464736f6c63430008130033",
    "sourcePath": "/workspaces/SCM-Starter/contracts/Assessment.sol",
    "compiler": {
        "name": "solc",
        "version": "0.8.19+commit.7dd6d404"
    },
    "functionHashes": {
        "_tokenAbbrv()": "b5964ace",
        "_tokenName()": "9f0c8125",
        "_totalSupply()": "3eaaf86b",
        "balance()": "b69ef8a8",
        "deposit(uint256)": "b6b55f25",
        "getBalance()": "12065fe0",
        "getTokenAbbrv()": "a48c933f",
        "getTokenName()": "862b092b",
        "owner()": "8da5cb5b",
        "withdraw(uint256)": "2e1a7d4d"
    },
    "gasEstimates": {
        "creation": {
            "codeDepositCost": "294800",
            "executionCost": "infinite",
            "totalCost": "infinite"
        },
        "external": {
            "_tokenAbbrv()": "infinite",
            "_tokenName()": "infinite",
            "_totalSupply()": "2329",
            "balance()": "2350",
            "deposit(uint256)": "infinite",
            "getBalance()": "2271",
            "getTokenAbbrv()": "infinite",
            "getTokenName()": "infinite",
            "owner()": "2426",
            "withdraw(uint256)": "infinite"
        }
    }
}